S015000054726166666963206C696768742E7372656318
S11300000C942A000C9455010C9447000C9447005E
S11300100C9447000C9447000C9447000C94470040
S11300200C9447000C9447000C9447000C94470030
S11300300C9447000C9447000C9447000C94470020
S11300400C9447000C9447000C9447000C94470010
S11300500C94470011241FBECFE5D8E0DEBFCDBF0E
S113006010E0A0E6B0E0EAE9F6E002C005900D92E7
S1130070A236B107D9F720E0A2E6B0E001C01D9294
S1130080AA36B207E1F70E94DA010C944B030C94F0
S1130090000062E084E40E94B60160E081E40E9412
S11300A0BF0161E081E40E94BF0162E081E40E943B
S11300B0BF0163E081E40E94BF0164E081E40E9427
S11300C0BF0165E081E40E94BF010E94F4020E9426
S11300D0E90208958091660090916700813091054E
S11300E009F448C01CF4892B49F0F4CF82309105FF
S11300F009F45DC0039709F4ACC0ECCF65E081E47A
S11301000E94C80160E081E40E94C80181E090E09F
S113011090936100809360000E940B0380916600BD
S11301209091670001969093670080936600D2CF08
S113013061E081E40E94C8018091600090916100B7
S1130140892B21F464E081E40E94C8010E942B03FE
S113015061E081E40E94D10180916000909161008E
S1130160892B21F464E081E40E94D1010E942B03D5
S1130170219602C0C0E0D0E0CA30D105CCF260E0E4
S113018081E40E94D1018091600090916100892BEB
S113019021F465E081E40E94D10180916600909190
S11301A067000196909367008093660093CF8091D7
S11301B0600090916100892B21F465E081E40E9444
S11301C0D10162E081E40E94C801809160009091B5
S11301D06100892B21F463E081E40E94C8010E943C
S11301E00B038091640090916500019731F40E94A3
S11301F00B03109265001092640080916600909148
S113020067000196909367008093660063CF61E076
S113021081E40E94C8018091600090916100892B63
S113022021F464E081E40E94C8010E942B0361E090
S113023081E40E94D1018091600090916100892B3A
S113024021F464E081E40E94D1010E942B032196F1
S113025002C0C0E0D0E0CA30D105CCF262E081E453
S11302600E94D1018091600090916100892B21F45A
S113027063E081E40E94D101809162009091630067
S1130280019771F4809166009091670001969093B4
S113029067008093660010926300109262001ACF88
S11302A0109267001092660015CF1F920F920FB63E
S11302B00F9211242F933F934F935F936F937F93E8
S11302C08F939F93AF93BF93EF93FF9380916000BD
S11302D0909161000197C9F510926100109260003D
S11302E08091660090916700009719F40E940403BE
S11302F02CC08130910529F464E081E40E94C80196
S113030024C08330910579F464E081E40E94C8013B
S113031081E090E09093670080936600909363007F
S11303208093620012C0029781F40E94040365E086
S113033081E40E94D10163E081E40E94C80181E06C
S113034090E09093650080936400FF91EF91BF91DA
S1130350AF919F918F917F916F915F914F913F9159
S11303602F910F900FBE0F901F90189540E00E94A0
S1130370E101823011F080E0089581E0089541E0C8
S11303800E94E101823011F080E0089581E0089537
S113039041E00E946502823011F080E0089581E01E
S11303A0089540E00E946502823011F080E00895D3
S11303B081E008950E9449000E946A0080E090E074
S11303C008954130D9F58234A9F018F4813431F01C
S11303D076C08334D9F0843429F171C02AB381E022
S11303E090E002C0880F991F6A95E2F7822B8ABBBE
S11303F082E0089527B381E090E002C0880F991F3E
S11304006A95E2F7822B87BB82E0089524B381E0EA
S113041090E002C0880F991F6A95E2F7822B84BB93
S113042082E0089521B381E090E002C0880F991F13
S11304306A95E2F7822B81BB82E00895411141C0A5
S11304408234B1F018F4813431F03DC08334E9F0E2
S1130450843441F138C02AB381E090E002C0880FAF
S1130460991F6A95E2F7809582238ABB82E00895FA
S113047027B381E090E002C0880F991F6A95E2F7E4
S11304808095822387BB82E0089524B381E090E0C5
S113049002C0880F991F6A95E2F78095822384BB76
S11304A082E0089521B381E090E002C0880F991F93
S11304B06A95E2F78095822381BB82E0089580E00B
S11304C0089581E0089580E008954130D9F582349B
S11304D0A9F018F4813431F076C08334D9F084342F
S11304E029F171C02BB381E090E002C0880F991FFD
S11304F06A95E2F7822B8BBB82E0089528B381E0F2
S113050090E002C0880F991F6A95E2F7822B88BB9E
S113051082E0089525B381E090E002C0880F991F1E
S11305206A95E2F7822B85BB82E0089522B381E0CD
S113053090E002C0880F991F6A95E2F7822B82BB74
S113054082E00895411141C08234B1F018F481343D
S113055031F03DC08334E9F0843441F138C02BB329
S113056081E090E002C0880F991F6A95E2F78095B8
S113057082238BBB82E0089528B381E090E002C01F
S1130580880F991F6A95E2F78095822388BB82E0E1
S1130590089525B381E090E002C0880F991F6A9501
S11305A0E2F78095822385BB82E0089522B381E03F
S11305B090E002C0880F991F6A95E2F78095822324
S11305C082BB82E0089580E0089581E0089580E090
S11305D008958FB780688FBF85B7826085BF8BB75A
S11305E080648BBF81E0089513BE12BE81E008953C
S11305F083B7816083BF109269001092680081E024
S1130600089513BE81E0089581E090E0909369001D
S11306108093680008950E94F80240E050E0BA0117
S113062010C08091680090916900019781F008B62C
S113063000FEFDCF88B7816088BF4F5F5F4F6F4F6B
S11306407F4F4B348CE458076105710554F30E94C5
S1130650010381E008950E94F80240E050E0BA01ED
S113066010C08091680090916900019781F008B6EC
S113067000FEFDCF88B7816088BF4F5F5F4F6F4F2B
S11306807F4F403D83E058076105710554F30E9494
S10D0690010381E00895F894FFCF00
S105069A010059
S9030000FC
